S00C0000636F64652E737265637D
S11300000C943B000C9436050C945B050C94800511
S11300100C94EA070C94BC070C948E070C946007AC
S11300200C9432070C9404070C94D6060C94A8067E
S11300300C9458000C9458000C9458000C945800DC
S11300400C9458000C9458000C9458000C945800CC
S11300500C9458009B019F01A501AB01B101B701AC
S1130060BD01B705C105CB050606D5050606DF05A6
S1130070E905F305FD0511241FBECFE5D8E0DEBF79
S1130080CDBF10E0A0E6B0E0E0EAF2E102C00590E6
S11300900D92AA3AB107D9F720E0AAEAB0E001C06C
S11300A01D92A23CB207E1F70E9452020C944E0941
S11300B00C94000081E08093AA000895CF9361E03E
S11300C082E00E94FE0160E081E00E94FE0160E0A7
S11300D080E00E94FE0161E083E00E94FE0160E096
S11300E085E00E94FE0160E084E00E94FE01C0E021
S11300F015C08091AA00882331F01092AA0084E0F0
S11301008093AB000DC028EE33E040E050E060E0A7
S113011070E080E090E00E947706CF5FC53048F33E
S1130120CF910895CF9361E080E00E94FE0160E0EA
S113013082E00E94FE0160E081E00E94FE0161E035
S113014083E00E94FE0160E085E00E94FE0160E021
S113015084E00E94FE01C0E015C08091AA008823BB
S113016031F01092AA0085E08093AB000DC028EE18
S113017033E040E050E060E070E080E090E00E9416
S11301807706CF5FC53048F3CF91089561E085E0ED
S11301900E94FE0160E083E00E94FE0160E084E0D2
S11301A00E94FE0161E080E00E94FE0160E082E0C6
S11301B00E94FE0160E081E00E94FE0128E833E134
S11301C040E050E060E070E080E090E00E9477065C
S11301D08091AA0081111092AA000895CF9361E042
S11301E081E00E94FE0161E082E00E94FE0160E085
S11301F080E00E94FE0161E083E00E94FE0160E075
S113020085E00E94FE0160E084E00E94FE01C0E0FF
S113021018C08091AA00882331F01092AA0084E0CB
S11302208093AB0010C028EE33E040E050E060E083
S113023070E080E090E00E94770681E00E94210255
S1130240CF5FC53030F3CF910895CF9360E085E060
S11302500E94FE0160E083E00E94FE0161E084E010
S11302600E94FE0160E080E00E94FE0161E082E005
S11302700E94FE0161E081E00E94FE01C0E011C025
S113028028EE33E040E050E060E070E080E090E091
S11302900E94770684E00E94210281E00E942102EC
S11302A0CF5FC53068F38091AA0081111092AA0033
S11302B0CF910895CF9361E085E00E94FE0160E054
S11302C083E00E94FE0161E084E00E94FE0160E0A0
S11302D080E00E94FE0160E082E00E94FE0161E095
S11302E081E00E94FE01C0E011C028EE33E040E04E
S11302F050E060E070E080E090E00E94770684E0E7
S11303000E94210281E00E942102CF5FC53068F380
S11303108091AA0081111092AA00CF910895E091D2
S1130320AB008E2F90E08730910560F5FC01E65D0F
S1130330FF4F0C94480981E08093AB00089582E05C
S11303408093AB000E945E00089583E08093AB002D
S11303500E94EE00089581E08093AB000E94920019
S1130360089585E08093AB000E942501089586E0FE
S11303708093AB000E94C600089581E08093AB0097
S11303800E945A0108951092AB000E9402044AE5AB
S113039050E060E080E00E9400050E94FC010E94A1
S11303A0DA0180E00E94180508950E948F010E94DE
S11303B08F01FDCF80E0089561157105C9F09FEFAD
S11303C0FB0190838630B0F490E00CC0E92FF0E09C
S11303D0EE0FFF1FE05AFF4F2081821302C0FB0182
S11303E090839F5F20918F00921780F380E008959F
S11303F084E0089580E8089580E008950F931F93A2
S1130400CF93DF931F92CDB7DEB7062F1982BE01BB
S11304106F5F7F4F0E94DC01182FE981EE2354F0B7
S1130420EE0FFF0BE05AFF4F602F81810E94F30211
S1130430812B01C080680F90DF91CF911F910F91A4
S113044008951F93CF93DF9300D0CDB7DEB7198201
S11304501A82BE016E5F7F4F0E94DC01182FEA8171
S1130460EE23CCF0EE0FFF0BE05AFF4FBE016F5F9F
S11304707F4F81810E945203182B61E08981811191
S113048060E0EA81EE0FFF0BE05AFF4F81810E948A
S1130490F302812F01C080E80F900F90DF91CF917C
S11304A01F9108950E94C3010E94D501FDCF6115DB
S11304B07105C1F19FEFFB01908390E050E02CC0E7
S11304C0292F30E0F901EE0FFF1FEE0FFF1FE20F9F
S11304D0F31FE459FF4F408148131DC0F901EE0F8B
S11304E0FF1FEE0FFF1FE20FF31FE459FF4F41817F
S11304F0483080F4F901EE0FFF1FEE0FFF1F2E0F9F
S11305003F1FF901E459FF4F2281243018F4FB0105
S1130510908301C050689F5F2091A800921780F2D9
S1130520852F089584E008951F93CF93DF931F923E
S1130530CDB7DEB7162F9FEF9983BE016F5F7F4F54
S11305400E945702811149C0E981EE230CF445C091
S1130550112309F10E2E000CFF0B9F01220F331FF4
S1130560220F331FE20FF31FE459FF4FA281B0E0C3
S1130570AA0FBB1FA856BF4F0D90BC91A02D9C91F4
S113058021E030E0018002C0220F331F0A94E2F719
S1130590292B2C9323C00E2E000CFF0B9F01220F3E
S11305A0331F220F331FE20FF31FE459FF4FA281C1
S11305B0B0E0AA0FBB1FA856BF4F0D90BC91A02D51
S11305C09C9121E030E0018002C0220F331F0A9485
S11305D0E2F7209529232C9301C080680F90DF91C6
S11305E0CF911F9108951F93CF93DF931F92CDB79F
S11305F0DEB7162F9FEF9983BE016F5F7F4F0E9476
S11306005702811149C0E981EE230CF445C011233E
S113061009F10E2E000CFF0B9F01220F331F220F36
S1130620331FE20FF31FE459FF4FA281B0E0AA0F7A
S1130630BB1FA056BF4F0D90BC91A02D9C9121E0F3
S113064030E0018002C0220F331F0A94E2F7292B05
S11306502C9323C00E2E000CFF0B9F01220F331F7F
S1130660220F331FE20FF31FE459FF4FA281B0E0C2
S1130670AA0FBB1FA056BF4F0D90BC91A02D9C91FB
S113068021E030E0018002C0220F331F0A94E2F718
S1130690209529232C9301C080680F90DF91CF917E
S11306A01F9108950F931F93CF93DF931F92CDB79C
S11306B0DEB78B019FEF9983BE016F5F7F4F0E946E
S11306C05702811124C0E981EE230CF10E2E000C97
S11306D0FF0B9F01220F331F220F331FE20FF31F63
S11306E0E459FF4FA281B0E0AA0FBB1FA057BF4F30
S11306F00D90BC91A02D2C9130E0018002C0359565
S113070027950A94E2F72170F801208301C08068DC
S11307100F90DF91CF911F910F9108951F93CF9365
S1130720DF931F92CDB7DEB7162F9FEF9983BE01DB
S11307306F5F7F4F0E94570281114DC02981222390
S11307400CF449C0123008F046C0112311F1022EF6
S1130750000C330BF901EE0FFF1FEE0FFF1F2E0FDE
S11307603F1FF901E459FF4FA281B0E0AA0FBB1F5C
S1130770A056BF4F0D90BC91A02D9C9121E030E07C
S1130780018002C0220F331F0A94E2F7292B2C9315
S113079023C0022E000C330BF901EE0FFF1FEE0FE6
S11307A0FF1FE20FF31FE459FF4FA281B0E0AA0F2D
S11307B0BB1FA056BF4F0D90BC91A02D9C9121E072
S11307C030E0018002C0220F331F0A94E2F7209523
S11307D029232C9301C080680F90DF91CF911F9142
S11307E008951F93CF93DF93C82F142F0E94940270
S11307F0D82F612F8C2F0E948E038D2BDF91CF91E8
S11308001F910895CF93C0E011C0EC2FF0E0CF0109
S1130810880F991F880F991FE80FF91FE459FF4F9C
S11308204481638180810E94F103CF5F8091A8009D
S1130830C81758F380E0CF9108956115710551F000
S1130840833040F4E82FF0E0EE0FFF1FE455FF4F34
S1130850718360830895833088F4811104C08AB75A
S113086080648ABF0895813021F48AB780688ABF82
S11308700895823019F48AB780628ABF0895CF93AD
S1130880DF93C82FD62F0E94A505C33008F09AC065
S1130890CC2349F0C13061F0C23079F0E0E0F0E0FF
S11308A090E080E00EC0E5E5F0E091E080E009C072
S11308B0E5E5F0E093E082E004C0E4E5F0E096E0F2
S11308C086E0C23008F05EC0D230B9F4408121E045
S11308D030E0B90102C0660F771F8A95E2F7862FD0
S11308E0809584238083808102C0220F331F9A95D0
S11308F0E2F720952823208365C0D330A9F46081D2
S113090021E030E0A90102C0440F551F8A95E2F7A7
S1130910462B4083808102C0220F331F9A95E2F751
S11309202095282320834EC0D11116C0408121E098
S113093030E0B90102C0660F771F8A95E2F7862F6F
S1130940809584238083808102C0220F331F9A956F
S1130950E2F7282B208336C0D130A1F5608121E055
S113096030E0A90102C0440F551F8A95E2F7462BD7
S11309704083808102C0220F331F9A95E2F7282B0F
S1130980208320C0C230F1F4D1110EC0408121E097
S113099030E0B90102C0660F771F8A95E2F7CB01F8
S11309A08095842380830EC0D13061F4408121E09E
S11309B030E0B90102C0660F771F8A95E2F7CB01D8
S11309C0842B80830E94A905DF91CF910895CF9352
S11309D0C82F0E94A5058C2F0E942B04C33060F4FD
S11309E0EC2FF0E0EE0FFF1FE455FF4F0190F08174
S11309F0E02D309709F009950E94A905CF9108953B
S1130A000F931F93CF93DF93C82FD62F8A010E9491
S1130A10A5056D2F8C2F0E943F04B8018C2F0E94D6
S1130A201D040E94A905DF91CF911F910F91089594
S1130A30CF93C82F0E94A505C330A0F48C2F0E9429
S1130A402B04C11104C08BB780648BBF0BC0C130B1
S1130A5021F48BB780688BBF05C0C23019F48BB703
S1130A6080628BBF0E94A905CF9108951F920F92B7
S1130A700FB60F9211242F933F934F935F936F936D
S1130A807F938F939F93AF93BF93EF93FF9380E0F4
S1130A900E94E704FF91EF91BF91AF919F918F91D5
S1130AA07F916F915F914F913F912F910F900FBE66
S1130AB00F901F9018951F920F920FB60F9211244A
S1130AC02F933F934F935F936F937F938F939F9352
S1130AD0AF93BF93EF93FF9381E00E94E704FF91EC
S1130AE0EF91BF91AF919F918F917F916F915F91A2
S1130AF04F913F912F910F900FBE0F901F9018951B
S1130B001F920F920FB60F9211242F933F934F937E
S1130B105F936F937F938F939F93AF93BF93EF9361
S1130B20FF9382E00E94E704FF91EF91BF91AF91A0
S1130B309F918F917F916F915F914F913F912F91F1
S1130B400F900FBE0F901F9018958FB78F778FBFA0
S1130B5008958FB780688FBF089590E08A3091051B
S1130B6008F054C0FC01EF5CFF4F0C94480983B7B4
S1130B708E7F83BF83B78D7F83BF83B78B7F83BF14
S1130B80089583B7816083BF83B78D7F83BF83B7A5
S1130B908B7F83BF089583B78E7F83BF83B78260C3
S1130BA083BF83B78B7F83BF089583B7816083BF7F
S1130BB083B7826083BF83B78B7F83BF089583B776
S1130BC08E7F83BF83B78D7F83BF83B7846083BFEA
S1130BD0089583B7816083BF83B78D7F83BF83B755
S1130BE0846083BF089583B78E7F83BF83B7826099
S1130BF083BF83B7846083BF089583B7816083BF55
S1130C0083B7826083BF83B7846083BF08958130D4
S1130C1081F028F08430B9F08A30E1F0089583B788
S1130C208F7B83BF83B7877F83BF83B7806883BF8E
S1130C30089583B78F7B83BF83B7886083BF83B7EF
S1130C40806883BF089583B7806483BF83B7886057
S1130C5083BF089583B7806483BF83B7877F83BFCF
S1130C600895613069F028F0623099F06330C1F082
S1130C70089583B78F7E83BF83B78F7D83BF089525
S1130C808230A0F483B7806183BF83B78F7D83BF35
S1130C90089583B78F7E83BF83B7806283BF08952F
S1130CA083B7806183BF83B7806283BF089580E088
S1130CB00E94AD0560E080E00E943106089582BF85
S1130CC008951F93CF93DF93162FC42FD22F0E9422
S1130CD05F06812F0E94AD058C2F0E9407066D2FA1
S1130CE08C2F0E943106DF91CF911F910895CF92EE
S1130CF0DF92EF92FF920E94B9082FE632E143E8B7
S1130D005CE30E9418080E948A086B017C0120E0C1
S1130D1040E061E080E00E94610640E050E0BA01FA
S1130D200AC008B600FEFDCF88B7816088BF4F5F58
S1130D305F4F6F4F7F4F4C155D056E057F0588F340
S1130D400E94570680E0FF90EF90DF90CF900895C7
S1130D501F920F920FB60F9211242F933F934F932C
S1130D605F936F937F938F939F93AF93BF93EF930F
S1130D70FF930E94A505E091C000F091C100099580
S1130D8088B7816088BF0E94A905FF91EF91BF9148
S1130D90AF919F918F917F916F915F914F913F910F
S1130DA02F910F900FBE0F901F9018951F920F92C6
S1130DB00FB60F9211242F933F934F935F936F932A
S1130DC07F938F939F93AF93BF93EF93FF930E946F
S1130DD0A505E091BE00F091BF00099588B7826037
S1130DE088BF0E94A905FF91EF91BF91AF919F9198
S1130DF08F917F916F915F914F913F912F910F90C0
S1130E000FBE0F901F9018951F920F920FB60F925E
S1130E1011242F933F934F935F936F937F938F93FB
S1130E209F93AF93BF93EF93FF930E94A505E09127
S1130E30BC00F091BD00099588B7846088BF0E940A
S1130E40A905FF91EF91BF91AF919F918F917F91F0
S1130E506F915F914F913F912F910F900FBE0F9023
S1130E601F9018951F920F920FB60F9211242F9373
S1130E703F934F935F936F937F938F939F93AF931E
S1130E80BF93EF93FF930E94A505E091B800F09102
S1130E90B900099588B7886088BF0E94A905FF91A9
S1130EA0EF91BF91AF919F918F917F916F915F91DE
S1130EB04F913F912F910F900FBE0F901F90189557
S1130EC01F920F920FB60F9211242F933F934F93BB
S1130ED05F936F937F938F939F93AF93BF93EF939E
S1130EE0FF930E94A505E091BA00F091BB0009951B
S1130EF088B7806188BF0E94A905FF91EF91BF91D7
S1130F00AF919F918F917F916F915F914F913F919D
S1130F102F910F900FBE0F901F9018951F920F9254
S1130F200FB60F9211242F933F934F935F936F93B8
S1130F307F938F939F93AF93BF93EF93FF930E94FD
S1130F40A505E091B600F091B700099588B78062D5
S1130F5088BF0E94A905FF91EF91BF91AF919F9126
S1130F608F917F916F915F914F913F912F910F904E
S1130F700FBE0F901F9018951F920F920FB60F92ED
S1130F8011242F933F934F935F936F937F938F938A
S1130F909F93AF93BF93EF93FF930E94A505E091B6
S1130FA0B400F091B500099588B7806488BF0E94A9
S1130FB0A905FF91EF91BF91AF919F918F917F917F
S1130FC06F915F914F913F912F910F900FBE0F90B2
S1130FD01F9018951F920F920FB60F9211242F9302
S1130FE03F934F935F936F937F938F939F93AF93AD
S1130FF0BF93EF93FF930E94A505E091B200F09197
S1131000B300099588B7806888BF0E94A905FF913D
S1131010EF91BF91AF919F918F917F916F915F916C
S11310204F913F912F910F900FBE0F901F901895E5
S11310300E942C080C940E090E94070958F00E9483
S1131040000940F029F45F3F29F00C94F70851118E
S11310500C9442090C94FD080E941F0968F399231B
S1131060B1F3552391F3951B550BBB27AA276217A0
S11310707307840738F09F5F5F4F220F331F441FAD
S1131080AA1FA9F335D00E2E3AF0E0E832D09150E1
S11310905040E695001CCAF72BD0FE2F29D0660FCE
S11310A0771F881FBB1F261737074807AB07B0E811
S11310B009F0BB0B802DBF01FF2793585F4F3AF017
S11310C09E3F510578F00C94F7080C9442095F3F59
S11310D0E4F3983ED4F3869577956795B795F7959D
S11310E09F5FC9F7880F911D9695879597F9089585
S11310F0E1E0660F771F881FBB1F62177307840721
S1131100BA0720F0621B730B840BBA0BEE1F88F72F
S1131110E09508950E94270988F09F5798F0B92F09
S11311209927B751B0F0E1F0660F771F881F991F18
S11311301AF0BA95C9F714C0B13091F00E94410970
S1131140B1E008950C944109672F782F8827B85F80
S113115039F0B93FCCF3869577956795B395D9F770
S11311603EF490958095709561957F4F8F4F9F4F7A
S11311700895E894F92F96EBFF2381F012161306D5
S11311801406440B9395F69587957795679557952F
S11311904040FF23B9F71BC099270895882351F4D1
S11311A09850D2F7872B762F652F542F432F322F49
S11311B020E0B1F3121613061406440B88233AF008
S11311C09A95440F551F661F771F881FCAF755232A
S11311D04AF4440F551F11F460FF04C06F5F7F4F42
S11311E08F4F9F4F880F9695879597F9089597F994
S11311F09F6780E870E060E008959FEF80EC0895B9
S113120000240A94161617061806090608950024E1
S11312100A9412161306140605060895092E03945B
S1131220000C11F4882352F0BB0F40F4BF2B11F4CF
S113123060FF04C06F5F7F4F8F4F9F4F089557FD2E
S11312409058440F551F59F05F3F71F04795880F30
S113125097FB991F61F09F3F79F0879508951216C7
S113126013061406551FF2CF4695F1DF08C0161673
S113127017061806991FF1CF869571056105089424
S11312800895E894BB2766277727CB0197F908953B
S1131290EE0FFF1F0590F491E02D0994F894FFCF11
S11312A0000001010202030304040505000001011A
S11312B00001010101000202010100030301010018
S11312C004040101000505010100060203000106F2
S11312D039003600330030003A0037003400310062
S10D12E03B0038003500320007001F
S9030000FC
